:020000040800F2
:1000000070060020CD010008510E0008490E0008BE
:100010004D0E0008D3020008490F00080000000040
:100020000000000000000000000000007D0E00083D
:10003000D702000800000000530E00087F0E0008E1
:10004000E7010008E7010008E7010008E7010008F0
:10005000E7010008E7010008E7010008E7010008E0
:10006000E7010008E7010008E7010008E7010008D0
:10007000E7010008E7010008E7010008E7010008C0
:10008000E7010008E7010008E7010008E7010008B0
:10009000E7010008E7010008E7010008E7010008A0
:1000A000E7010008E7010008E7010008E701000890
:1000B000E7010008E7010008E7010008E701000880
:1000C000E7010008E7010008E7010008E701000870
:1000D000E7010008E7010008E7010008E701000860
:1000E000E7010008E7010008E7010008E701000850
:1000F000E7010008E7010008E7010008E701000840
:10010000E7010008E7010008E7010008E70100082F
:10011000E7010008E7010008E7010008E70100081F
:10012000E7010008E7010008E7010008E70100080F
:1001300000F002F800F03AF80AA090E8000C8244BF
:100140008344AAF10107DA4501D100F02FF8AFF29C
:10015000090EBAE80F0013F0010F18BFFB1A43F0A5
:1001600001031847340F0000540F0000103A24BF59
:1001700078C878C1FAD8520724BF30C830C144BF0C
:1001800004680C607047000000230024002500264E
:10019000103A28BF78C1FBD8520728BF30C148BFEA
:1001A0000B6070471FB51FBD10B510BD00F058F8AB
:1001B0001146FFF7F7FF00F0E5FE00F076F803B414
:1001C000FFF7F2FF03BC00F07DF80000094880470C
:1001D00009480047FEE7FEE7FEE7FEE7FEE7FEE729
:1001E000FEE7FEE7FEE7FEE704480549054A064B41
:1001F00070470000F10E0008310100087000002077
:100200007006002070020020700200204FF00002F3
:1002100000B5134694469646203922BFA0E80C50FC
:10022000A0E80C50B1F12001BFF4F7AF090728BFD7
:10023000A0E80C5048BF0CC05DF804EB890028BF53
:1002400040F8042B08BF704748BF20F8022B11F07C
:10025000804F18BF00F8012B7047704770477047F8
:10026000754600F02BF8AE4605006946534620F06F
:100270000700854618B020B5FFF7B6FFBDE820405F
:100280004FF000064FF000074FF000084FF0000B52
:1002900021F00701AC46ACE8C009ACE8C009ACE805
:1002A000C009ACE8C0098D46704710B50446AFF3ED
:1002B00000802046BDE81040FFF781BF004870472E
:1002C0001000002001491820ABBEFEE72600020006
:1002D000704700BFFEE7704770B5044600F0B6F9FE
:1002E00006462546681C10B104480078054400BF46
:1002F00000F0ACF9801BA842FAD370BD0C000020BE
:100300002DE9F847024600239C467BE14FF00108A7
:1003100008FA03F4D1F8008008EA0400A0427DD175
:10032000DFF8F4A2D1F80480A8EB0A09D0453AD04E
:1003300014DCB8F1030F50D009DCB8F1000F31D054
:10034000B8F1010F1CD0B8F1020F49D120E0B8F18B
:10035000110F18D0B8F1120F42D11EE0B9F5881F65
:1003600025D006DCB9F5803F20D0B9F5801F37D104
:100370001AE0B9F5001F18D0B9F5041F30D117E005
:10038000D1F80CC02DE0D1F80C8008F1040C28E065
:10039000D1F80C8008F1080C23E0D1F80C8008F1AA
:1003A0000C0C1EE000BF00BF00BF00BF00BF00BFBD
:1003B000D1F80880B8F1000F02D14FF0040C0BE027
:1003C000D1F80880B8F1010F03D14FF0080C146187
:1003D00002E04FF0080C546103E04FF0000C00E025
:1003E00000BF00BFFF2801D8904601E002F10408D9
:1003F0004646FF2802D84FEA830803E0A3F1080825
:100400004FEA88084746D6F800804FF00F0909FAEE
:1004100007F928EA09080CFA07F900E07AE048EA47
:100420000908C6F80080D1F8048008F08058B8F1B7
:10043000805F6FD100BFDFF8E481D8F8188048F002
:100440000108DFF8D891C9F81880C846D8F8188094
:1004500008F00108CDF8008000BF00BF4FEAB938AE
:100460004FEA930958F829504FEA83784FEA1879F0
:100470004FF00F0808FA09F825EA0805DFF8A0810F
:10048000424502D14FF0000824E0DFF89881424550
:1004900002D14FF001081DE0DFF88C81424502D106
:1004A0004FF0020816E0DFF88481424502D14FF098
:1004B00003080FE0DFF87881424502D14FF00408CD
:1004C00008E0DFF87081424502D14FF0050801E0F5
:1004D0004FF006084FEA83794FEA197908FA09F8CC
:1004E00048EA0505DFF850814FEA930948F829509A
:1004F000D1F8048008F48038B8F5803F0BD1DFF8DC
:100500003C81D8F8008048EA0008DFF83091C9F84B
:1005100000800AE075E0DFF82481D8F8008028EA3E
:100520000008DFF81891C9F80080D1F8048008F4B9
:100530000038B8F5003F0ED1DFF8008108F104085B
:10054000D8F8008048EA0008DFF8F09009F10409C3
:10055000C9F800800DE0DFF8E48008F10408D8F85D
:10056000008028EA0008DFF8D49009F10409C9F8EE
:100570000080D1F8048008F48018B8F5801F0ED1EF
:10058000DFF8B88008F10808D8F8008048EA0008C9
:10059000DFF8A89009F10809C9F800800DE0DFF83C
:1005A0009C8008F10808D8F8008028EA0008DFF8E5
:1005B0008C9009F10809C9F80080D1F8048008F48A
:1005C0000018B8F5001F0ED1DFF8708008F10C0894
:1005D000D8F8008048EA0008DFF8609009F10C09BB
:1005E000C9F800800DE0DFF8548008F10C08D8F855
:1005F000008028EA0008DFF8449009F10C09C9F8E6
:1006000000805B1CD1F8008028FA03F8B8F1000FD5
:100610007FF47CAEBDE8F8870000111000100240A6
:1006200000080140000C014000100140001401408E
:1006300000180140001C0140080001400004014076
:100640000AB1016101E00B040361704701480068D1
:10065000704700000400002003480068034909783F
:100660000844014908607047040000200C00002085
:1006700010B50848006840F01000064908600320E3
:1006800000F070F80F2000F007F800F02BF80020C1
:1006900010BD00000020024070B504460E480078EE
:1006A0004FF47A71B1FBF0F00C490968B1FBF0F539
:1006B000284600F0AFFB08B1012070BD102C07D216
:1006C00000222146501E00F00EF80548046001E0AB
:1006D0000120F2E70020F0E70C00002000000020DD
:1006E0000800002070472DE9F05F80460D46164651
:1006F000002700F02BFC074639462A46334601F016
:100700000700C0F1070ABAF1040F02D94FF0040A3A
:1007100001E0C0F1070AD14600F1040ABAF1070F5F
:1007200002D24FF0000A01E0A0F1030AD4464FF0D4
:10073000010A0AFA09FAAAF1010A0AEA020A0AFAFD
:100740000CFA4FF0010B0BFA0CFBABF1010B0BEAAF
:10075000030B4AEA0B042146404600F0FFFBBDE8CC
:10076000F09F000000BF00F00702064B19684FF62B
:10077000FF031940044B0B4343EA0221014B19606C
:1007800000BF70470CED00E00000FA0570B50446AC
:100790000D460CB9012070BD5A48006800F00700F2
:1007A000A8420ED25748006820F007002843554958
:1007B00008600846006800F00700A84201D0012048
:1007C000E9E7207800F0020002281DD1207800F02F
:1007D0000400042805D14C48406840F4E0604A49D0
:1007E0004860207800F00800082805D14648406895
:1007F00040F46050444948604348406820F0F000AD
:10080000A168084340494860207800F0010078B3AF
:100810006068012806D13C48006800F4003090B9B7
:100820000120B8E76068022806D13748006800F068
:10083000007040B90120AEE73348006800F00200C4
:1008400008B90120A7E73048406820F0030061683C
:1008500008432D494860FFF7F9FE064609E0FFF717
:10086000F5FE801B41F28831884202D9032092E7CD
:1008700007E02548406800F00C006168B0EB810F8C
:10088000EDD12048006800F00700A8420ED91D48AD
:10089000006820F0070028431A49086008460068ED
:1008A00000F00700A84201D0012074E7207800F092
:1008B0000400042807D11448406820F4E060E1688F
:1008C000084311494860207800F00800082808D142
:1008D0000D48406820F46050216940EAC1000A498F
:1008E000486000F019F808494968C1F30311074A44
:1008F000515CC8400649086006480068FFF7CCFE16
:10090000002048E70020024000100240801000084C
:100910000000002008000020F0B585B00FF26C0C3C
:100920009CE8E01001A8A0E8E0101CA52D68009547
:1009300000210022002300240020194D696801F0E5
:100940000C05F5B1042D02D0082D19D101E0154890
:1009500019E001ADC1F38346AC5D01F4803555B1BA
:100960000F4D6D68C5F340451DF805200D4D6543DD
:10097000B5FBF2F302E00C4D04FB05F3184602E070
:1009800000BF0A4800BF00BF05B0F0BD0203040568
:10099000060708090A0B0C0D0E0F101001020000CB
:1009A00000100240001BB70000093D0000127A0051
:1009B000F8B504460CB90120F8BD207800F001001C
:1009C000002878D0F848406800F00C0004280CD0CB
:1009D000F548406800F00C00082811D1F248406842
:1009E00000F48030B0F5803F0AD1EF48006800F491
:1009F000003000285FD0606800285CD10120DBE770
:100A000000BF6068B0F5803F06D1E748006840F459
:100A10008030E549086028E0606858B9E24800681D
:100A200020F48030E04908600846006820F4802007
:100A300008601AE06068B0F5A02F0BD1DA480068B2
:100A400040F48020D84908600846006840F48030AF
:100A500008600AE0D448006820F48030D249086079
:100A60000846006820F48020086000BF606888B1F4
:100A7000FFF7ECFD054606E0FFF7E8FD401B6428A4
:100A800001D9032098E7C848006800F40030002826
:100A9000F2D010E0FFF7DAFD054606E0FFF7D6FDDD
:100AA000401B642801D9032086E7BF48006800F492
:100AB00000300028F2D1207800F00200022857D13F
:100AC000B948406800F00C0050B1B748406800F0E9
:100AD0000C00082818D1B448406800F4803098B958
:100AE000B148006800F0020020B12069012801D05F
:100AF000012061E7AC48006820F0F800616940EA35
:100B0000C100A949086033E02069E8B10120A74984
:100B10000860FFF79BFD054606E0FFF797FD401BC9
:100B2000022801D9032047E79F48006800F002002F
:100B30000028F2D09C48006820F0F800616940EA83
:100B4000C1009949086013E0002098490860FFF748
:100B50007DFD054606E0FFF779FD401B022801D91F
:100B6000032029E79048006800F002000028F2D135
:100B7000207800F0080008282DD1A069B8B1012024
:100B80008B490860FFF762FD054606E0FFF75EFD52
:100B9000401B022801D903200EE78348406A00F079
:100BA00002000028F2D0012000F054F913E00020E8
:100BB0007F490860FFF74AFD054606E0FFF746FD5E
:100BC000401B022801D90320F6E67748406A00F06E
:100BD00002000028F2D1207800F00400042873D12C
:100BE00000277148C06900F0805070B900BF6E489E
:100BF000C06940F080506C49C8610846C06900F087
:100C00008050009000BF00BF01276A48006800F4D0
:100C10008070B0B96748006840F48070654908602A
:100C2000FFF714FD054606E0FFF710FD401B6428A2
:100C300001D90320C0E65F48006800F480700028F6
:100C4000F2D000BFE068012806D15748006A40F0A2
:100C500001005549086227E0E06858B95248006A27
:100C600020F00100504908620846006A20F00400A4
:100C7000086219E0E06805280BD14B48006A40F093
:100C80000400494908620846006A40F00100086211
:100C90000AE04548006A20F001004349086208461E
:100CA000006A20F00400086200BFE068A0B1FFF70E
:100CB000CDFC054609E0FFF7C9FC401B41F2883135
:100CC000884202D9032077E622E03748006A00F024
:100CD00002000028EFD012E0FFF7B8FC054608E05C
:100CE000FFF7B4FC401B41F28831884201D9032050
:100CF00062E62D48006A00F002000028F0D1012FC2
:100D000005D12948C06920F080502749C86100BF3B
:100D1000E069C8B32448406800F00C00082860D09F
:100D2000E069022848D1002020490866FFF78EFCC0
:100D3000054606E0FFF78AFC401B022801D9032084
:100D40003AE61948006800F000700028F2D1206AE5
:100D5000B0F5803F07D11448406820F40030A16806
:100D6000084311494860D4E9080108430E4949681D
:100D700021F4741108430C49486001200B490866AE
:100D8000FFF764FC054607E03DE0FFF75FFC401B12
:100D9000022801D903200FE60348006800F0007024
:100DA0000028F2D02FE00000001002400000424274
:100DB0008004424200700040002014490866FFF79A
:100DC00045FC054606E0FFF741FC401B022801D91F
:100DD0000320F1E50E48006800F000700028F2D111
:100DE00011E0E069012800D1E6E50948466806F40B
:100DF0008031206A814204D106F47011606A814218
:100E000001D00120D8E50020D6E5000000004242D4
:100E10000010024070B504462546681EB0F1807F80
:100E200001D301200FE0681E4FF0E02148610F213F
:100E30004FF0FF3000F092F800204FF0E021886181
:100E400007200861002070BD00BFFEE700BFFEE77D
:100E50007047704708B508490968C9084FF47A72A5
:100E6000B1FBF2F14143009100BF00BF00994A1E5F
:100E700000920029F9D108BD00000020704710B58C
:100E8000FFF7EAFB10BD00B58FB014210AA8FFF7E9
:100E9000BDF928216846FFF7B9F90220009000202B
:100EA00001900390012004901020059000200290F2
:100EB00002200790002108914FF4601109916846C3
:100EC000FFF776FD08B100BFFEE70F200A90022071
:100ED0000B9000200C900E904FF480600D9002213A
:100EE0000AA8FFF753FC08B100BFFEE70FB000BD32
:100EF0001148006840F001000F490860084640684A
:100F00000E4908400C494860084600680C490840F2
:100F1000094908600846006820F4802008600846F7
:100F2000406820F4FE0048604FF41F008860C8034A
:100F30000449086070470000001002400000FFF8FC
:100F4000FFFFF6FE08ED00E000BFFEE70248006884
:100F5000C0F30220704700000CED00E010B500283F
:100F600004DB0A07130E054A135406E00A07140EA1
:100F7000034A00F00F031B1FD45410BD00E400E02F
:100F800018ED00E086B0FFF773FBFFF77CFF00BFB2
:100F90003348806940F0080031498861084680691B
:100FA00000F00800019000BF00BF00BF0846806944
:100FB00040F0400088610846806900F040000190E0
:100FC00000BF00BF274B0FCBCDE90423CDE90201C1
:100FD00002A92548FFF794F902A92448FFF790F9E0
:100FE000012220212048FFF72BFB012220211F484E
:100FF000FFF726FB32E04FF47A70FFF76DF900221D
:1010000020211948FFF71CFB002220211748FFF779
:1010100017FB4FF47A70FFF75FF901222021124885
:10102000FFF70EFB002220211048FFF709FB4FF4C9
:101030007A70FFF751F9002220210B48FFF700FBDF
:10104000012220210948FFF7FBFA4FF47A70FFF7DD
:1010500043F9012220210448FFF7F2FACBE7000010
:101060000010024070100008000C01400018014000
:10107000200000000100000000000000030000004C
:101080000000000000000000010203040607080938
:101090000000000001020304B81000080000002056
:1010A000100000006C010008C810000810000020AB
:1010B00060060000880100080024F4000000000021
:0810C000100000000100000017
:0400000508000131BD
:00000001FF
